:100000000C943F000C945C000C945C000C945C001D
:100010000C945C000C945C000C945C000C945C00F0
:100020000C945C000C945C000C945C000C945C00E0
:100030000C945C000C945C000C945C000C945C00D0
:100040000C945C000C945C000C9444040C945C00D4
:100050000C9458040C9486040C945C000C945C0082
:100060000C944E040C945C000C945C000C945C00AA
:100070000D522C310D002B0D002424240D001124D1
:100080001FBECFEFD0E1DEBFCDBF11E0A0E0B1E0F9
:10009000EAE1FFE002C005900D92AC37B107D9F755
:1000A00021E0ACE7B1E001C01D92AB3CB207E1F743
:1000B0000E9455030C948B070C940000469A00C0D4
:1000C00000C046980895CF93DF93D82F662311F090
:1000D000449A01C04498459887B18F6087B9C8B1E8
:1000E000C07F8D2F82958F708C2B88B90E945E0007
:1000F000DF70DC2BD8B90E945E00CF60C8B9DF91F9
:10010000CF910895882311F0449A01C04498459AEC
:1001100087B1807F87B9469A00C000C096B14698E3
:1001200000C000C0469A00C000C026B12F70892FC1
:100130008295807F4698822B089580E00E948200FD
:100140008823DCF385E08A95F1F780E00E94820045
:100150000895CF93C82F0E949D0060E08C2F0E94CD
:100160006300CF910895611104C080580E94A900D6
:10017000089580540E94A900089581E00E94A9007A
:100180000895CF93C82F0E949D00CA3049F480344F
:1001900010F080E001C080E480580E94A90004C0F3
:1001A00061E08C2F0E946300CF910895CF93DF937D
:1001B000EC012196FC018081882329F00E94C10076
:1001C00089918111FBCFDF91CF910895CF93C82FF3
:1001D00087B18F6787B989E999E30197F1F700C083
:1001E000419A409A0E945E008FEF91E10197F1F7EA
:1001F00000C000000E945E009EE49A95F1F700C0E6
:100200000E945E008EE48A95F1F700C040980E943B
:100210005E009EE49A95F1F700C088E20E94A90072
:1002200088E00E94A9000E94BD0086E00E94A9000B
:100230008C2F0E94A900CF9108958CE00E94E600C7
:100240000E94BD0080E091E00E94D60089E091E02C
:100250000E94D6008BE091E00E94D600089587E1CD
:1002600090E00E94B0040895CF93DF93CDB7DEB73E
:1002700064970FB6F894DEBF0FBECDBF2FEF8FE9A6
:1002800095E0215080409040E1F700C0000089E7F0
:1002900090E00E940B0586E790E00E940B052FEF8F
:1002A0008FE995E0215080409040E1F700C00000C8
:1002B00083E79EE69A8389838CE290E09C838B831C
:1002C000CE010196DC010D900020E9F7119729E09D
:1002D000E0E0F1E001900D922A95E1F7FC01019038
:1002E0000020E9F731972DE030E0318320830E9430
:1002F000FC042FEF8FE995E0215080409040E1F71A
:1003000000C0000080E790E00E940B052FEF8FE90E
:1003100095E0215080409040E1F700C000006496D5
:100320000FB6F894DEBF0FBECDBFDF91CF91089519
:10033000ECE7F0E0808181648083EAE7F0E080818F
:100340008E6F808308958FEF84B983E884BD81E048
:1003500080936E0020E030E048EC52E460917C0134
:1003600070917D0180917E0190917F010E948A05AC
:1003700020E030E04FE753E40E94C5060E940306E8
:1003800067BD089588279A71892B31F08DE191E03E
:100390000E94D60080E0089581E008950F931F9396
:1003A000CF93DF93CDB7DEB7E0970FB6F894DEBFFB
:1003B0000FBECDBF0E94BD0060E080E00E94B30090
:1003C00085E291E00E94D60008E710E0F801808104
:1003D00091814AE0BE016F5F7F4F0E945607CE01B8
:1003E00001960E94D60060E088E00E94B300F80108
:1003F000008111818AE291E00E94D600B80180E07C
:1004000090E00E94320620E030E040E850E40E9494
:10041000C50620E030E040E85AE30E94C50620E02F
:1004200030E04AE754E40E94C5060E94FC05DC0166
:10043000CB014AE0BE016F5E7F4F0E945607CE019E
:1004400041960E94D60061E080E00E94B3008EE2F7
:1004500091E00E94D6008091C7019091C8010E944E
:10046000D60061E088E00E94B30085E391E00E943D
:10047000D6004AE0BE016F5D7F4F8091C901909127
:10048000CA010E945607CE0181960E94D600E096CE
:100490000FB6F894DEBF0FBECDBFDF91CF911F9195
:1004A0000F910895CF93DF93EC01AC0120E030E091
:1004B000E0ECF0E066EC70E00AC0908195FFFDCFC3
:1004C000DA018D91AD01DB018C932F5F3F4FDE018F
:1004D0000D900020E9F71197AC1BBD0B2A173B07C5
:1004E00060F3DF91CF910895823371F128F4803366
:1004F00059F08133C1F00895843309F447C0A8F15D
:10050000853309F454C008958AE391E09093C801BB
:100510008093C7011092C6011092C5018CE391E04F
:100520000E945202089580E491E09093C801809364
:10053000C70181E090E09093C6018093C50182E4F9
:1005400091E00E945202089586E491E09093C801E0
:100550008093C70182E090E09093C6018093C5012B
:1005600088E491E00E94520208958CE491E0909317
:10057000C8018093C70183E090E09093C601809307
:10058000C5018EE491E00E945202089582E591E057
:100590009093C8018093C70184E090E09093C601D6
:1005A0008093C50184E591E00E945202089588E598
:1005B00091E09093C8018093C70185E090E090930B
:1005C000C6018093C5018AE591E00E945202089518
:1005D000029910C080E30E9474022FEF8FE995E02A
:1005E000215080409040E1F700C000008EE591E08E
:1005F0000E945202039910C081E30E9474022FEFFF
:100600008FE995E0215080409040E1F700C0000064
:1006100083E691E00E945202049910C082E30E9496
:1006200074022FEF8FE995E0215080409040E1F770
:1006300000C0000088E691E00E945202059910C0B7
:1006400083E30E9474022FEF8FE995E021508040F0
:100650009040E1F700C000008DE691E00E94520258
:10066000069910C084E30E9474022FEF8FE995E091
:10067000215080409040E1F700C0000082E791E007
:100680000E945202079910C085E30E9474022FEF66
:100690008FE995E0215080409040E1F700C00000D4
:1006A00087E791E00E945202089511B80E941D014F
:1006B0000E942F010E9434010E94A3010E94980110
:1006C00081E085BD789477247A94C8E7D0E011E082
:1006D000612C55245394412C03E30E94E8020E94AC
:1006E000C9047C0190FD0DC00E94C201872D90E0DD
:1006F000970133278217930721F07E2C8E2D0E94BD
:1007000074026881798180E090E00E94320620E0E6
:1007100030E040E850E40E94C50620E030E040E8C8
:100720005AE30E94C5066B017C012DE33AE54FE2D6
:1007300054E40E94C506A70196010E94C506A701C0
:1007400096010E94C5064B015C012AE931E641E3AE
:1007500055E4C701B6010E94C506A70196010E9493
:10076000C5069B01AC01C501B4010E941D054B01EA
:100770005C0120E030EF4FE655E4C701B6010E946E
:10078000C5069B01AC01C501B4010E941E0523E30F
:1007900033E844ED54E40E941D05E090C501F0905B
:1007A000C60123E0E216F10479F14CF421E0E216EF
:1007B000F10471F022E0E216F104C1F04FC024E030
:1007C000E216F10479F125E0E216F104C9F146C020
:1007D000D12E20E030E048EC51E40E94C00618160B
:1007E0000CF0D62CD1268D2D90E03AC0D12E20E0F1
:1007F00030E04CE052E40E94C00618160CF0D62CF3
:10080000D1268D2D90E02CC0D12E20E030E040E2AA
:1008100052E40E94C00618160CF0D62CD1268D2D5D
:1008200090E01EC0D12E20E030E044E352E40E946C
:10083000C00618160CF0D62CD1268D2D90E010C0D5
:10084000D12E20E030E04CE552E40E94C00618169C
:100850000CF0D62CD1268D2D90E002C0852D942D44
:100860000E9DA0010F9D500D1124489F9001499F9E
:10087000300D589F300D11243093CA012093C901C7
:1008800027BD0E94CE0129CF1F920F920FB60F9263
:1008900011240F900FBE0F901F9018951F920F926A
:1008A0000FB60F9211240F900FBE0F901F90189546
:1008B0001F920F920FB60F9211242F938F939F9335
:1008C000EF93FF938091C0002091C6008C71E0915E
:1008D0008201EF5FEF7190918101E91739F0E093A8
:1008E0008201F0E0EB57FE4F208301C082E090913F
:1008F0008001892B80938001FF91EF919F918F91CF
:100900002F910F900FBE0F901F9018951F920F926E
:100910000FB60F9211248F939F93EF93FF939091B3
:10092000840180918301981769F0E0918301EF5F62
:10093000EF71E0938301F0E0EB55FE4F80818093EF
:10094000C60005C0E1ECF0E080818F7D8083FF91DF
:10095000EF919F918F910F900FBE0F901F90189560
:1009600010928401109283011092820110928101F1
:1009700099231CF422E02093C00090789093C50046
:100980008093C40088E98093C10086E08093C20010
:10099000089590918201809181019817A9F090911A
:1009A00081019F5F9F71E92FF0E0EB57FE4F20819F
:1009B00080918001909381011092800190E0982FA6
:1009C0008827820F911D089580E091E0089520917D
:1009D00084012F5F2F71909183012917E1F3E22F9A
:1009E000F0E0EB55FE4F808320938401E1ECF0E0D2
:1009F0008081806280830895CF93DF93EC018881AA
:100A0000882331F021960E94E70489918111FBCF60
:100A1000DF91CF910895CF93DF93EC012196FC01F4
:100A20008491882339F00E94E704FE018491219685
:100A30008111F9CFDF91CF9108955058BB27AA2794
:100A40000E9435050C9486060E94780638F00E94B4
:100A50007F0620F039F49F3F19F426F40C947506B4
:100A60000EF4E095E7FB0C946F06E92F0E949706C1
:100A700058F3BA17620773078407950720F079F4D3
:100A8000A6F50C94B9060EF4E0950B2EBA2FA02D06
:100A90000B01B90190010C01CA01A0011124FF272B
:100AA000591B99F0593F50F4503E68F11A16F04026
:100AB000A22F232F342F4427585FF3CF4695379525
:100AC0002795A795F0405395C9F77EF41F16BA0BEA
:100AD000620B730B840BBAF09150A1F0FF0FBB1F98
:100AE000661F771F881FC2F70EC0BA0F621F731FE1
:100AF000841F48F4879577956795B795F7959E3F3E
:100B000008F0B0CF9395880F08F09927EE0F9795CE
:100B1000879508950E949E050C9486060E947F0684
:100B200058F00E94780640F029F45F3F29F00C94B9
:100B30006F0651110C94BA060C9475060E94970624
:100B400068F39923B1F3552391F3951B550BBB27FC
:100B5000AA2762177307840738F09F5F5F4F220F41
:100B6000331F441FAA1FA9F335D00E2E3AF0E0E838
:100B700032D091505040E695001CCAF72BD0FE2F82
:100B800029D0660F771F881FBB1F26173707480716
:100B9000AB07B0E809F0BB0B802DBF01FF279358CE
:100BA0005F4F3AF09E3F510578F00C946F060C941D
:100BB000BA065F3FE4F3983ED4F386957795679540
:100BC000B795F7959F5FC9F7880F911D9695879503
:100BD00097F90895E1E0660F771F881FBB1F621722
:100BE00073078407BA0720F0621B730B840BBA0BE0
:100BF000EE1F88F7E09508950E9403066894B111EE
:100C00000C94BA0608950E949F0688F09F5798F0AA
:100C1000B92F9927B751B0F0E1F0660F771F881F01
:100C2000991F1AF0BA95C9F714C0B13091F00E941B
:100C3000B906B1E008950C94B906672F782F88277C
:100C4000B85F39F0B93FCCF3869577956795B39542
:100C5000D9F73EF490958095709561957F4F8F4FB1
:100C60009F4F0895E89409C097FB3EF490958095B6
:100C7000709561957F4F8F4F9F4F9923A9F0F92F62
:100C800096E9BB279395F695879577956795B795E0
:100C9000F111F8CFFAF4BB0F11F460FF1BC06F5FC6
:100CA0007F4F8F4F9F4F16C0882311F096E911C0D8
:100CB000772321F09EE8872F762F05C0662371F0F9
:100CC00096E8862F70E060E02AF09A95660F771F0D
:100CD000881FDAF7880F9695879597F9089597F901
:100CE0009F6780E870E060E008959FEF80EC0895D2
:100CF00000240A94161617061806090608950024FB
:100D00000A9412161306140605060895092E039474
:100D1000000C11F4882352F0BB0F40F4BF2B11F4E8
:100D200060FF04C06F5F7F4F8F4F9F4F089557FD47
:100D30009058440F551F59F05F3F71F04795880F49
:100D400097FB991F61F09F3F79F0879508951216E0
:100D500013061406551FF2CF4695F1DF08C016168C
:100D600017061806991FF1CF86957105610508943D
:100D70000895E894BB2766277727CB0197F9089554
:100D80000E94320708F48FEF08950E94D8060C9451
:100D900086060E94780638F00E947F0620F0952390
:100DA00011F00C946F060C94750611240C94BA067D
:100DB0000E94970670F3959FC1F3950F50E0551F61
:100DC000629FF001729FBB27F00DB11D639FAA27A0
:100DD000F00DB11DAA1F649F6627B00DA11D661FEF
:100DE000829F2227B00DA11D621F739FB00DA11D10
:100DF000621F839FA00D611D221F749F3327A00DCA
:100E0000611D231F849F600D211D822F762F6A2F65
:100E100011249F5750409AF0F1F088234AF0EE0FCA
:100E2000FF1FBB1F661F771F881F91505040A9F7F7
:100E30009E3F510580F00C946F060C94BA065F3FFC
:100E4000E4F3983ED4F3869577956795B795F79533
:100E5000E7959F5FC1F7FE2B880F911D96958795AB
:100E600097F90895990F0008550FAA0BE0E8FEEFD7
:100E700016161706E807F907C0F012161306E4075E
:100E8000F50798F0621B730B840B950B39F40A2657
:100E900061F0232B242B252B21F408950A2609F435
:100EA000A140A6958FEF811D811D0895BB274A3073
:100EB00031F4992322F4BDE2909581959F4F0C94D3
:100EC0006207BB27FB015527AA27880F991FAA1F76
:100ED000A41710F0A41B83955051B9F7A05DAA3355
:100EE00008F0A95DA193009779F7B111B193119220
:100EF000CB010C947B07DC01FC01672F71917723F8
:100F0000E1F7329704C07C916D9370836291AE17C4
:0A0F1000BF07C8F30895F894FFCF5F
:100F1A00486F74476C6F7665000A004C434420663C
:100F2A006F7220646562756767696E670055415222
:100F3A00544552520041444320006D5620004C65EE
:100F4A0076656C200050574D200030004C304C0024
:100F5A0031004C314C0032004C324C0033004C33DF
:100F6A004C0034004C344C0035004C354C005431A4
:100F7A00325400543234540054333554004239390F
:0C0F8A004200423738420042333242003D
:00000001FF
