S0110000486F74476C6F7665732E7372656378
S11300000C943F000C945C000C945C000C945C0019
S11300100C945C000C945C000C945C000C945C00EC
S11300200C945C000C945C000C945C000C945C00DC
S11300300C945C000C945C000C945C000C945C00CC
S11300400C945C000C945C000C945C000C945C00BC
S11300500C9445020C9473020C945C000C945C00A8
S11300600C945C000C945C000C945C000C945C009C
S1130070522C310D002B0D002424240D00001124DA
S11300801FBECFEFD0E1DEBFCDBF11E0A0E0B1E0F5
S1130090E2E8F6E002C005900D92A637B107D9F761
S11300A021E0A6E7B1E001C01D92AB3BB207E1F746
S11300B00E9427020C943F030C940000169A00C07F
S11300C000C016980895CF93DF93D82F662311F0BC
S11300D0149A01C01498159881B18F6081B9C2B186
S11300E0C07F8D2F82958F708C2B82B90E945E0009
S11300F0DF70DC2BD2B90E945E00CF60C2B9DF9101
S1130100CF910895882311F0149A01C01498159A78
S113011081B1807F81B9169A00C000C090B1169851
S113012000C000C0169A00C000C020B12F70892FF3
S11301308295807F1698822B089580E00E94820029
S11301408823DCF385E08A95F1F780E00E94820041
S11301500895CF93C82F0E949D0060E08C2F0E94C9
S11301606300CF910895611104C080580E94A900D2
S1130170089580540E94A900089581E00E94A90076
S11301800895CF93C82F0E949D00CA3049F480344B
S113019010F080E001C080E480580E94A90004C0EF
S11301A061E08C2F0E946300CF910895CF93DF9379
S11301B0EC012196FC018081882329F00E94C10072
S11301C089918111FBCFDF91CF910895CF93C82FEF
S11301D081B18F6781B989E999E30197F1F700C08B
S11301E0119A109A0E945E008FEF91E10197F1F746
S11301F000C000000E945E009EE49A95F1F700C0E2
S11302000E945E008EE48A95F1F700C010980E9467
S11302105E009EE49A95F1F700C088E20E94A9006E
S113022088E00E94A9000E94BD0086E00E94A90007
S11302308C2F0E94A900CF9108958FEF87B988B9B8
S113024008958CE00E94E6000E94BD0080E091E0E9
S11302500E94D60089E091E00E94D6008BE091E0F4
S11302600E94D600089587E190E00E949D02789450
S11302700895CF93DF93CDB7DEB764970FB6F894A4
S1130280DEBF0FBECDBF88E790E00E94F80285E78D
S113029090E00E94F80283E79EE69A8389838CE2C9
S11302A090E09C838B83CE010196DC010D900020AD
S11302B0E9F7119729E0E0E0F1E001900D922A9529
S11302C0E1F7FC0101900020E9F731972DE030E0DF
S11302D0318320830E94E90280E790E00E94F802C3
S11302E064960FB6F894DEBF0FBECDBFDF91CF91F9
S11302F00895CF93DF93CDB7DEB764970FB6F89424
S1130300DEBF0FBECDBF94FF0BC021E1EDE1F1E0F4
S1130310DE01119601900D922A95E1F721E001C0CA
S113032020E093FF0CC023E1EEE2F1E0DE01119640
S113033001900D922A95E1F791FF0FC002C091FF41
S11303400AC086E1E1E4F1E0DE01119601900D922C
S11303508A95E1F702C0222351F0CE0101960E9452
S1130360D600CE0101960E94E90280E001C081E03E
S113037064960FB6F894DEBF0FBECDBFDF91CF9168
S113038008951F93CF93DF9300D01F92CDB7DEB7AC
S1130390182F4AE0BE016F5F7F4F90E00E940A036E
S11303A00E94BD0087E591E00E94D600CE0101962F
S11303B00E94D600812F0E94D4020F900F900F90BC
S11303C0DF91CF911F910895CF93DF93C82F61E000
S11303D080E00E94B3008EE691E00E94D60061E0C6
S11303E08BE00E94B300C233B1F028F4C03349F06B
S11303F0C13361F029C0C433C1F090F0C533D1F0EA
S113040023C08FEF88B9C2E6D1E018C08EEF88B957
S1130410C4E6D1E013C08CEF88B9C6E6D1E00EC0C3
S113042088EF88B9C8E6D1E009C080EF88B9CAE688
S1130430D1E004C080EE88B9CCE6D1E0CE010E94C0
S1130440D600CE010E94E902DF91CF9108950E9467
S11304501D010E9421010E9433010E9439010FEF06
S113046010E00E94B602EC0190FDFBCF0E947901DE
S1130470CE01992708171907A1F30C2F8C2F0E947E
S1130480C1018C2F0E94E401EBCF1F920F920FB693
S11304900F9211242F938F939F93EF93FF93809147
S11304A0C0002091C6008C71E0917801EF5FEF717C
S11304B090917701E91739F0E0937801F0E0E5587D
S11304C0FE4F208301C082E090917601892B8093B6
S11304D07601FF91EF919F918F912F910F900FBE15
S11304E00F901F9018951F920F920FB60F92112420
S11304F08F939F93EF93FF9390917A018091790169
S1130500981769F0E0917901EF5FEF71E093790159
S1130510F0E0E556FE4F80818093C60005C0E1EC13
S1130520F0E080818F7D8083FF91EF919F918F9187
S11305300F900FBE0F901F90189510927A01109291
S11305407901109278011092770199231CF422E02A
S11305502093C00090789093C5008093C40088E9EC
S11305608093C10086E08093C20008959091780141
S1130570809177019817A9F0909177019F5F9F71FF
S1130580E92FF0E0E558FE4F2081809176019093A9
S113059077011092760190E0982F8827820F911DA1
S11305A0089580E091E0089520917A012F5F2F71E2
S11305B0909179012917E1F3E22FF0E0E556FE4F1F
S11305C0808320937A01E1ECF0E080818062808373
S11305D00895CF93DF93EC018881882331F021962D
S11305E00E94D40289918111FBCFDF91CF910895AC
S11305F0CF93DF93EC012196FC018491882339F099
S11306000E94D402FE01849121968111F9CFDF91D9
S1130610CF910895BB274A3031F4992322F4BDE2E7
S1130620909581959F4F0C941603BB27FB0155278A
S1130630AA27880F991FAA1FA41710F0A41B83953B
S11306405051B9F7A05DAA3308F0A95DA1930097B2
S113065079F7B111B1931192CB010C942F03DC0102
S1130660FC01672F71917723E1F7329704C07C91E5
S11306706D9370836291AE17BF07C8F30895F89421
S1050680FFCFA6
S1130682486F74476C6F7665000A004C43442066D9
S11306926F7220646562756767696E6700554152BF
S11306A254204672616D65204572726F7200554125
S11306B25254204F76657272756E204572726F7253
S11306C200427566666572206F766572666C6F7736
S11306D2206572726F720052656365697665643A69
S11306E220003000310032003300340035004C6504
S10906F276656C20000097
S9030000FC
