:100000000C943F000C945C000C945C000C945C001D
:100010000C945C000C945C000C945C000C945C00F0
:100020000C945C000C945C000C945C000C945C00E0
:100030000C945C000C945C000C945C000C945C00D0
:100040000C945C000C945C000C943E030C945C00DB
:100050000C946A050C9498050C945C000C945C005C
:100060000C9448030C945C000C945C000C945C00B1
:100070000D522C310D002B0D002424240D001124D1
:100080001FBECFEFD0E1DEBFCDBF11E0A0E0B1E0F9
:10009000EEEAF1E102C005900D92A234B107D9F762
:1000A00021E0A2E4B1E001C01D92AB39B207E1F753
:1000B0000E9458020C94D5080C940000469A00C087
:1000C00000C046980895CF93DF93D82F662311F090
:1000D000449A01C04498459887B18F6087B9C8B1E8
:1000E000C07F8D2F82958F708C2B88B90E945E0007
:1000F000DF70DC2BD8B90E945E00CF60C8B9DF91F9
:10010000CF910895882311F0449A01C04498459AEC
:1001100087B1807F87B9469A00C000C096B14698E3
:1001200000C000C0469A00C000C026B12F70892FC1
:100130008295807F4698822B089580E00E948200FD
:100140008823DCF385E08A95F1F780E00E94820045
:100150000895CF93C82F0E949D0060E08C2F0E94CD
:100160006300CF910895611104C080580E94A900D6
:10017000089580540E94A900089581E00E94A9007A
:100180000895CF93C82F0E949D00CA3049F480344F
:1001900010F080E001C080E480580E94A90004C0F3
:1001A00061E08C2F0E946300CF910895CF93DF937D
:1001B000EC012196FC018081882329F00E94C10076
:1001C00089918111FBCFDF91CF910895CF93C82FF3
:1001D00087B18F6787B989E999E30197F1F700C083
:1001E000419A409A0E945E008FEF91E10197F1F7EA
:1001F00000C000000E945E009EE49A95F1F700C0E6
:100200000E945E008EE48A95F1F700C040980E943B
:100210005E009EE49A95F1F700C088E20E94A90072
:1002200088E00E94A9000E94BD0086E00E94A9000B
:100230008C2F0E94A900CF9108958CE00E94E600C7
:100240000E94BD0082E091E00E94D6008EE091E025
:100250000E94D60080E191E00E94D600089581E0DE
:1002600090E00E94C2050895CF93DF93CDB7DEB72B
:1002700064970FB6F894DEBF0FBECDBF2FEF8FE9A6
:1002800095E0215080409040E1F700C0000089E7F0
:1002900090E00E941D0686E790E00E941D062FEF69
:1002A0008FE191E0215080409040E1F700C00000D4
:1002B00083E79EE69A8389838CE290E09C838B831C
:1002C000CE010196DC010D900020E9F711972CE09A
:1002D000E2E0F1E001900D922A95E1F7FC01019036
:1002E0000020E9F731972DE030E0318320830E9430
:1002F0000E062FEF8FE191E0215080409040E1F712
:1003000000C0000080E790E00E941D062FEF8FE9FB
:1003100095E0215080409040E1F700C000006496D5
:100320000FB6F894DEBF0FBECDBFDF91CF91089519
:10033000EAE7F0E0808184608083ACE7B0E08C91F4
:10034000806C8C93808188608083808180688083CA
:1003500008958FEF84B983E884BD81E080936E00B7
:1003600020E030E048EC52E4609144017091450196
:1003700080914601909147010E949C0620E030E068
:100380004FE753E40E94D7070E94150767BD089501
:100390009C0122273A7181E0232B09F080E0089527
:1003A000823329F128F4803351F0813399F0089594
:1003B0008433B9F148F1853309F440C0089582E2ED
:1003C00091E09093900180938F0110928E01109292
:1003D0008D01089584E291E09093900180938F01C4
:1003E00081E090E090938E0180938D01089586E2E4
:1003F00091E09093900180938F0182E090E0909340
:100400008E0180938D01089588E291E09093900190
:1004100080938F0183E090E090938E0180938D0113
:1004200008958AE291E09093900180938F0184E097
:1004300090E090938E0180938D0108958CE291E07D
:100440009093900180938F0185E090E090938E01CE
:1004500080938D010895CF93DF93EC01AC0120E0F0
:1004600030E0E0ECF0E066EC70E00AC0908195FFCF
:10047000FDCFDA018D91AD01DB018C932F5F3F4FF2
:10048000DE010D900020E9F71197AC1BBD0B2A1778
:100490003B0760F3DF91CF910895069903C080E395
:1004A0000E94D001079903C085E30E94D0010895FE
:1004B00011B80E941D010E942F010E9434010E9468
:1004C000A9010E94980181E085BDEAE7F0E0808102
:1004D0008064808380E30E94D0010E94BD002FEFE2
:1004E0008FE796E1215080409040E1F700C0000086
:1004F00078948FEF93E20197F1F700C000000FEFBF
:1005000010E0D1E0C12CAA24A394B12C0F2EF3E368
:10051000DF2EF02D0E944D020E94DB057C0190FD34
:100520000DC00E94C801882349F00E151F0529F04F
:100530008E2D0E94D001870101C08701E0908D01BE
:10054000F0908E0193E0E916F10409F441C04CF4F7
:1005500081E0E816F10481F092E0E916F10411F16E
:1005600079C024E0E216F10409F448C085E0E816F9
:10057000F10409F459C06EC0CD2F20E030E048EC02
:1005800051E4609191017091920180919301909159
:1005900094010E94D20718160CF0CC2DCD278C2F79
:1005A00090E05AC0CD2F20E030E04CE052E4609162
:1005B00091017091920180919301909194010E9418
:1005C000D20718160CF0CC2DCD278C2F90E044C00C
:1005D000CD2F20E030E040E252E460919101709133
:1005E000920180919301909194010E94D207181674
:1005F0000CF0CC2DCD278C2F90E02EC0CD2F20E0FD
:1006000030E044E352E46091910170919201809155
:100610009301909194010E94D20718160CF0CC2DF2
:10062000CD278C2F90E018C0CD2F20E030E04CE596
:1006300052E46091910170919201809193019091A7
:1006400094010E94D20718160CF0CC2DCD278C2FC8
:1006500090E002C08A2D9B2DDE9CA001DF9C500DF6
:100660001124489F9001499F300D589F300D11244F
:1006700030939A012093990127BD4CCF1F920F927E
:100680000FB60F9211240F900FBE0F901F90189568
:100690001F920F920FB60F9211248F929F92AF92DA
:1006A000BF92CF92DF92EF92FF920F931F932F93FF
:1006B0003F934F935F936F937F938F939F93AF93EA
:1006C000BF93EF93FF93CF93DF93CDB7DEB7EE9752
:1006D000DEBFCDBF80917C00803C09F4EDC0813C41
:1006E00009F0A0C160E080E00E94B3008EE291E0DA
:1006F0000E94D60008E710E0D8018D919C914AE055
:10070000BE016F5E7F4F0E94A008CE0141960E94FD
:10071000D600F8016081718180E090E00E9444077A
:1007200023E333E343E550E40E94D70720E030E0C1
:1007300040E85AE30E94D70720E030E04AE754E45B
:100740000E94D7076093950170939601809397015B
:100750009093980160E089E00E94B30084E391E007
:100760000E94D60060919501709196018091970149
:10077000909198010E940E07DC01CB014AE0BE0176
:100780006F5F7F4F0E94A008CE0101960E94D600A5
:100790008091420190914301803DF7E09F0709F06D
:1007A00082C020E030E04AE754E460919501709106
:1007B000960180919701909198010E949C066B018F
:1007C0007C012DE33AE54FE254E40E94D707A701EC
:1007D00096010E94D707A70196010E94D7074B01F7
:1007E0005C012AE931E641E355E4C701B6010E9404
:1007F000D707A70196010E94D7079B01AC01C5014D
:10080000B4010E942F064B015C0120E030EF4FE65F
:1008100055E4C701B6010E94D7079B01AC01C50191
:10082000B4010E94300623E333E844ED54E40E940F
:100830002F0660939101709392018093930190939E
:1008400094010F2EF4E5EF2EF12CF02DFCA6EBA673
:10085000FE01BD9628E0DF011D922A95E9F70E946E
:100860000E07DC01CB014AE0BE016F5D7F4F0E94A5
:10087000A0088E01055D1F4F4AE050E0BE016F5D8C
:100880007F4FC8010E949008F80101900020E9F70D
:100890003197F182E082C8010E942B02109243013D
:1008A0001092420105C0019690934301809342014A
:1008B00080EC80937C00B6C061E080E00E94B300D1
:1008C00088E391E00E94D6008091780090917900B1
:1008D0004AE0BE016F5F7F4F0E94A008CE010196E3
:1008E0000E94D6008091000190910101803DB7E007
:1008F0009B0709F08FC060917800709179000F2EEE
:10090000F2E4EF2EF12CF02DFEAAEDAA6894DD247E
:10091000D3F8FE01F796DF012D2D1D922A95E9F7F8
:1009200080E090E00E94440723E333E343E550E492
:100930000E94D70720E030E040E85AE30E94D70742
:1009400020E030E04AE754E40E94D70720E030E49A
:1009500047EE54E40E942F062DEC3CEC4CE45EE3A1
:100960000E94D7070E940E07DC01CB014AE0BE01BE
:10097000655D7F4F0E94A0088E010B5C1F4F4AE00F
:1009800050E0BE01655D7F4FC8010E949008F801EC
:1009900001900020E9F73197F182E082C8010E94BE
:1009A0002B028FEF9FE9A5E081509040A040E1F736
:1009B00000C000000F2EFCE4EF2EF12CF02DFAA267
:1009C000E9A2FE01B396DF011D92DA94E9F74AE04D
:1009D000BE016F5E7F4F80918D0190918E010E94CC
:1009E000A008045111094AE050E0BE016F5E7F4F3C
:1009F000C8010E949008F80101900020E9F73197A2
:100A0000F182E082C8010E942B0210920101109233
:100A1000000105C00196909301018093000181ECD3
:100A200080937C00809142019091430164E170E0E9
:100A30000E946808892B31F50E94BD0061E089E0C1
:100A40000E94B3008EE391E00E94D60080918F0156
:100A5000909190010E94D60061E08CE00E94B3006A
:100A600080E491E00E94D6004AE0BE016F5F7F4FB4
:100A70008091990190919A010E94A008CE0101965F
:100A80000E94D600EAE7F0E0808180648083EE96E1
:100A90000FB6F894DEBF0FBECDBFDF91CF91FF91AF
:100AA000EF91BF91AF919F918F917F916F915F91E6
:100AB0004F913F912F911F910F91FF90EF90DF90F9
:100AC000CF90BF90AF909F908F900F900FBE0F90E0
:100AD0001F9018951F920F920FB60F9211242F930B
:100AE0008F939F93EF93FF938091C0002091C60056
:100AF0008C71E0914A01EF5FEF7190914901E91724
:100B000039F0E0934A01F0E0E35BFE4F208301C03F
:100B100082E090914801892B80934801FF91EF91E9
:100B20009F918F912F910F900FBE0F901F9018954E
:100B30001F920F920FB60F9211248F939F93EF93F2
:100B4000FF9390914C0180914B01981769F0E091CF
:100B50004B01EF5FEF71E0934B01F0E0E359FE4F83
:100B600080818093C60005C0E1ECF0E080818F7D3C
:100B70008083FF91EF919F918F910F900FBE0F9007
:100B80001F90189510924C0110924B0110924A013F
:100B90001092490199231CF422E02093C000907820
:100BA0009093C5008093C40088E98093C10086E0DB
:100BB0008093C200089590914A018091490198174D
:100BC000A9F0909149019F5F9F71E92FF0E0E35BED
:100BD000FE4F208180914801909349011092480175
:100BE00090E0982F8827820F911D089580E091E072
:100BF000089520914C012F5F2F7190914B0129177F
:100C0000E1F3E22FF0E0E359FE4F808320934C01A3
:100C1000E1ECF0E08081806280830895CF93DF93E0
:100C2000EC018881882331F021960E94F905899191
:100C30008111FBCFDF91CF910895CF93DF93EC012A
:100C40002196FC018491882339F00E94F905FE0168
:100C5000849121968111F9CFDF91CF910895505859
:100C6000BB27AA270E9447060C9498070E948A0770
:100C700038F00E94910720F039F49F3F19F426F4D0
:100C80000C9487070EF4E095E7FB0C948107E92F9D
:100C90000E94A90758F3BA176207730784079507DC
:100CA00020F079F4A6F50C94CB070EF4E0950B2E0A
:100CB000BA2FA02D0B01B90190010C01CA01A001AE
:100CC0001124FF27591B99F0593F50F4503E68F109
:100CD0001A16F040A22F232F342F4427585FF3CF4A
:100CE000469537952795A795F0405395C9F77EF41B
:100CF0001F16BA0B620B730B840BBAF09150A1F064
:100D0000FF0FBB1F661F771F881FC2F70EC0BA0FE9
:100D1000621F731F841F48F4879577956795B79571
:100D2000F7959E3F08F0B0CF9395880F08F099276C
:100D3000EE0F9795879508950E94B0060C9498073A
:100D40000E94910758F00E948A0740F029F45F3F03
:100D500029F00C94810751110C94CC070C9487074F
:100D60000E94A90768F39923B1F3552391F3951BCA
:100D7000550BBB27AA2762177307840738F09F5FBC
:100D80005F4F220F331F441FAA1FA9F335D00E2E29
:100D90003AF0E0E832D091505040E695001CCAF796
:100DA0002BD0FE2F29D0660F771F881FBB1F261759
:100DB00037074807AB07B0E809F0BB0B802DBF0130
:100DC000FF2793585F4F3AF09E3F510578F00C94FF
:100DD00081070C94CC075F3FE4F3983ED4F38695EB
:100DE00077956795B795F7959F5FC9F7880F911D20
:100DF0009695879597F90895E1E0660F771F881F0C
:100E0000BB1F621773078407BA0720F0621B730BBE
:100E1000840BBA0BEE1F88F7E09508950E94150722
:100E20006894B1110C94CC0708950E94B10788F022
:100E30009F5798F0B92F9927B751B0F0E1F0660F9E
:100E4000771F881F991F1AF0BA95C9F714C0B130DF
:100E500091F00E94CB07B1E008950C94CB07672F67
:100E6000782F8827B85F39F0B93FCCF3869577950E
:100E70006795B395D9F73EF49095809570956195F7
:100E80007F4F8F4F9F4F0895E89409C097FB3EF422
:100E900090958095709561957F4F8F4F9F4F9923C7
:100EA000A9F0F92F96E9BB279395F6958795779545
:100EB0006795B795F111F8CFFAF4BB0F11F460FF05
:100EC0001BC06F5F7F4F8F4F9F4F16C0882311F05D
:100ED00096E911C0772321F09EE8872F762F05C071
:100EE000662371F096E8862F70E060E02AF09A950C
:100EF000660F771F881FDAF7880F9695879597F901
:100F0000089597F99F6780E870E060E008959FEF8B
:100F100080EC089500240A94161617061806090690
:100F2000089500240A94121613061406050608955F
:100F3000092E0394000C11F4882352F0BB0F40F4E7
:100F4000BF2B11F460FF04C06F5F7F4F8F4F9F4F27
:100F5000089557FD9058440F551F59F05F3F71F0A9
:100F60004795880F97FB991F61F09F3F79F0879510
:100F70000895121613061406551FF2CF4695F1DF99
:100F800008C0161617061806991FF1CF8695710529
:100F9000610508940895E894BB2766277727CB015D
:100FA00097F908950E94440808F48FEF08950E946D
:100FB000EA070C9498070E948A0738F00E9491076C
:100FC00020F0952311F00C9481070C9487071124CD
:100FD0000C94CC070E94A90770F3959FC1F3950F5D
:100FE00050E0551F629FF001729FBB27F00DB11DAD
:100FF000639FAA27F00DB11DAA1F649F6627B00D3D
:10100000A11D661F829F2227B00DA11D621F739F25
:10101000B00DA11D621F839FA00D611D221F749F33
:101020003327A00D611D231F849F600D211D822F7A
:10103000762F6A2F11249F5750409AF0F1F08823A1
:101040004AF0EE0FFF1FBB1F661F771F881F9150CE
:101050005040A9F79E3F510580F00C9481070C94F5
:10106000CC075F3FE4F3983ED4F386957795679578
:10107000B795F795E7959F5FC1F7FE2B880F911DF8
:101080009695879597F90895990F0008550FAA0B23
:10109000E0E8FEEF16161706E807F907C0F012168B
:1010A0001306E407F50798F0621B730B840B950B8E
:1010B00039F40A2661F0232B242B252B21F40895E3
:1010C0000A2609F4A140A6958FEF811D811D089580
:1010D00097FB072E16F4009407D077FD09D00E94E5
:1010E0007C0807FC05D03EF4909581959F4F0895AC
:1010F000709561957F4F0895AA1BBB1B51E107C0F6
:10110000AA1FBB1FA617B70710F0A61BB70B881F97
:10111000991F5A95A9F780959095BC01CD01089526
:10112000FB01DC010D900020E9F711974150504080
:1011300028F0019000200D92C9F708951C9208959F
:10114000BB274A3031F4992322F4BDE29095819572
:101150009F4F0C94AC08BB27FB015527AA27880F8B
:10116000991FAA1FA41710F0A41B83955051B9F71B
:10117000A05DAA3308F0A95DA193009779F7B1119A
:10118000B1931192CB010C94C508DC01FC01672FCF
:1011900071917723E1F7329704C07C916D9370834E
:0E11A0006291AE17BF07C8F30895F894FFCF11
:1011AE00E803486F74476C6F7665446576000A00F5
:1011BE004C434420666F7220646562756767696E82
:1011CE0067003000310032003300340035004144F6
:1011DE00433120006D5620004144433020004C0026
:0211EE005000AF
:00000001FF
