S0110000486F74476C6F7665732E7372656378
S11300000C943F000C945C000C945C000C945C0019
S11300100C945C000C945C000C945C000C945C00EC
S11300200C945C000C945C000C945C000C945C00DC
S11300300C945C000C945C000C945C000C945C00CC
S11300400C945C000C945C000C94BC020C945C005A
S11300500C94D0020C94FE020C945C000C945C0092
S11300600C94C6020C945C000C945C000C945C0030
S1130070522C310D002B0D002424240D00001124DA
S11300801FBECFEFD0E1DEBFCDBF11E0A0E0B1E0F5
S1130090E6E5FAE002C005900D92A037B107D9F762
S11300A021E0A0E7B1E001C01D92AB3BB207E1F74C
S11300B00E9487020C9429050C940000469A00C003
S11300C000C046980895CF93DF93D82F662311F08C
S11300D0449A01C04498459887B18F6087B9C8B1E4
S11300E0C07F8D2F82958F708C2B88B90E945E0003
S11300F0DF70DC2BD8B90E945E00CF60C8B9DF91F5
S1130100CF910895882311F0449A01C04498459AE8
S113011087B1807F87B9469A00C000C096B14698DF
S113012000C000C0469A00C000C026B12F70892FBD
S11301308295807F4698822B089580E00E948200F9
S11301408823DCF385E08A95F1F780E00E94820041
S11301500895CF93C82F0E949D0060E08C2F0E94C9
S11301606300CF910895611104C080580E94A900D2
S1130170089580540E94A900089581E00E94A90076
S11301800895CF93C82F0E949D00CA3049F480344B
S113019010F080E001C080E480580E94A90004C0EF
S11301A061E08C2F0E946300CF910895CF93DF9379
S11301B0EC012196FC018081882329F00E94C10072
S11301C089918111FBCFDF91CF910895CF93C82FEF
S11301D087B18F6787B989E999E30197F1F700C07F
S11301E0419A409A0E945E008FEF91E10197F1F7E6
S11301F000C000000E945E009EE49A95F1F700C0E2
S11302000E945E008EE48A95F1F700C040980E9437
S11302105E009EE49A95F1F700C088E20E94A9006E
S113022088E00E94A9000E94BD0086E00E94A90007
S11302308C2F0E94A900CF9108958CE00E94E600C3
S11302400E94BD0080E091E00E94D60089E091E028
S11302500E94D6008BE091E00E94D600089587E1C9
S113026090E00E9428030895CF93DF93CDB7DEB7C3
S113027064970FB6F894DEBF0FBECDBF88E790E059
S11302800E94830385E790E00E94830383E79EE650
S11302909A8389838CE290E09C838B83CE010196C0
S11302A0DC010D900020E9F7119729E0E0E0F1E08E
S11302B001900D922A95E1F7FC0101900020E9F7E5
S11302C031972DE030E0318320830E94740380E76E
S11302D090E00E94830364960FB6F894DEBF0FBECD
S11302E0CDBFDF91CF910895ECE7F0E08081816488
S11302F08083EAE7F0E080818E6F808308958FEF3A
S113030084B983E884BD81E080936E0020E030E00E
S113031048EC52E460917001709171018091720116
S1130320909173010E94950320E030E04FE753E47D
S11303300E9487040E94070467BD0895CF93DF934A
S1130340CDB7DEB764970FB6F894DEBF0FBECDBF4E
S113035094FF0BC021E1EDE1F1E0DE011196019083
S11303600D922A95E1F721E001C020E093FF0CC033
S113037023E1EEE2F1E0DE01119601900D922A955F
S1130380E1F791FF0FC002C091FF0AC086E1E1E4EA
S1130390F1E0DE01119601900D928A95E1F702C019
S11303A0222351F0CE0101960E94D600CE0101967F
S11303B00E94740380E001C081E064960FB6F89453
S11303C0DEBF0FBECDBFDF91CF910895CF93DF93F2
S11303D0CDB7DEB760970FB6F894DEBF0FBECDBFC2
S11303E060E080E00E94B30087E591E00E94D600BF
S11303F080917800909179004AE0BE016F5F7F4F51
S11304000E94F404CE0101960E94D60060960FB6B5
S1130410F894DEBF0FBECDBFDF91CF910895CF9387
S1130420DF93C82F61E080E00E94B30088E691E08A
S11304300E94D60061E086E00E94B300C233E1F07E
S113044028F4C03349F0C13371F03FC0C43331F1F3
S1130450E0F0C53361F139C01092BA011092B901CC
S1130460CCE5D1E02CC081E090E09093BA01809378
S1130470B901CEE5D1E023C082E090E09093BA01C7
S11304808093B901C0E6D1E01AC083E090E0909374
S1130490BA018093B901C2E6D1E011C084E090E0D2
S11304A09093BA018093B901C4E6D1E008C085E015
S11304B090E09093BA018093B901C6E6D1E0CE01F1
S11304C00E94D600CE010E947403DF91CF9108955B
S11304D0029903C080E30E940F02039903C081E3E1
S11304E00E940F02049903C082E30E940F0205993F
S11304F003C083E30E940F02069903C084E30E94B1
S11305000F02079903C085E30E940F02089511B8F2
S11305100E941D010E942F010E9434010E947F014C
S11305200E94740181E085BD789480E887BDEE2443
S1130530EA9409EB11E00F2EF3E3FF2EF02D0E9455
S11305404103EC0190FD0DC00E949E018E2D90E0B0
S11305509E0133278217930721F0EC2E8C2F0E94E3
S11305600F020E946802F80180818F9D802D112462
S113057087BD0E94E601E3CF1F920F920FB60F9240
S113058011240F900FBE0F901F9018951F920F9279
S11305900FB60F9211240F900FBE0F901F90189555
S11305A01F920F920FB60F9211242F938F939F9344
S11305B0EF93FF938091C0002091C6008C71E0916D
S11305C07601EF5FEF7190917501E91739F0E093CF
S11305D07601F0E0E758FE4F208301C082E090915D
S11305E07401892B80937401FF91EF919F918F91F6
S11305F02F910F900FBE0F901F9018951F920F927E
S11306000FB60F9211248F939F93EF93FF939091C2
S1130610780180917701981769F0E0917701EF5F95
S1130620EF71E0937701F0E0E756FE4F808180930D
S1130630C60005C0E1ECF0E080818F7D8083FF91EE
S1130640EF919F918F910F900FBE0F901F9018956F
S11306501092780110927701109276011092750130
S113066099231CF422E02093C00090789093C50055
S11306708093C40088E98093C10086E08093C2001F
S1130680089590917601809175019817A9F0909141
S113069075019F5F9F71E92FF0E0E758FE4F2081BD
S11306A080917401909375011092740190E0982FD9
S11306B08827820F911D089580E091E0089520918C
S11306C078012F5F2F71909177012917E1F3E22FC1
S11306D0F0E0E756FE4F808320937801E1ECF0E0F0
S11306E08081806280830895CF93DF93EC018881B9
S11306F0882331F021960E945F0389918111FBCFF9
S1130700DF91CF910895CF93DF93EC012196FC0103
S11307108491882339F00E945F03FE01849121961D
S11307208111F9CFDF91CF9108950E94A9030C9410
S11307304D040E94460458F00E943F0440F029F4FE
S11307405F3F29F00C94360451110C9481040C94ED
S11307503C040E945E0468F39923B1F3552391F39A
S1130760951B550BBB27AA2762177307840738F01C
S11307709F5F5F4F220F331F441FAA1FA9F335D079
S11307800E2E3AF0E0E832D091505040E695001C2D
S1130790CAF72BD0FE2F29D0660F771F881FBB1FE7
S11307A0261737074807AB07B0E809F0BB0B802DC5
S11307B0BF01FF2793585F4F3AF09E3F510578F0F1
S11307C00C9436040C9481045F3FE4F3983ED4F314
S11307D0869577956795B795F7959F5FC9F7880FC5
S11307E0911D9695879597F90895E1E0660F771F17
S11307F0881FBB1F621773078407BA0720F0621BA8
S1130800730B840BBA0BEE1F88F7E09508950E94D2
S1130810660488F09F5798F0B92F9927B751B0F024
S1130820E1F0660F771F881F991F1AF0BA95C9F770
S113083014C0B13091F00E948004B1E008950C948A
S11308408004672F782F8827B85F39F0B93FCCF33D
S1130850869577956795B395D9F73EF490958095ED
S1130860709561957F4F8F4F9F4F089597F99F67BC
S113087080E870E060E008959FEF80EC0895002424
S11308800A941616170618060906089500240A94F1
S113089012161306140605060895092E0394000C77
S11308A011F4882352F0BB0F40F4BF2B11F460FF06
S11308B004C06F5F7F4F8F4F9F4F089557FD90582F
S11308C0440F551F59F05F3F71F04795880F97FB10
S11308D0991F61F09F3F79F08795089512161306CA
S11308E01406551FF2CF4695F1DF08C016161706F9
S11308F01806991FF1CF869571056105089408952E
S1130900E894BB2766277727CB0197F908950E94BF
S11309109A040C944D040E943F0438F00E9446044B
S113092020F0952311F00C9436040C943C0411240B
S11309300C9481040E945E0470F3959FC1F3950F9B
S113094050E0551F629FF001729FBB27F00DB11D4F
S1130950639FAA27F00DB11DAA1F649F6627B00DDF
S1130960A11D661F829F2227B00DA11D621F739FC8
S1130970B00DA11D621F839FA00D611D221F749FD6
S11309803327A00D611D231F849F600D211D822F1D
S1130990762F6A2F11249F5750409AF0F1F0882344
S11309A04AF0EE0FFF1FBB1F661F771F881F915071
S11309B05040A9F79E3F510580F00C9436040C94E6
S11309C081045F3FE4F3983ED4F386957795679569
S11309D0B795F795E7959F5FC1F7FE2B880F911D9B
S11309E09695879597F90895BB274A3031F4992352
S11309F022F4BDE2909581959F4F0C940005BB278E
S1130A00FB015527AA27880F991FAA1FA41710F0C6
S1130A10A41B83955051B9F7A05DAA3308F0A95DD2
S1130A20A193009779F7B111B1931192CB010C9472
S1130A301905DC01FC01672F71917723E1F73297E7
S1130A4004C07C916D9370836291AE17BF07C8F3A5
S1090A500895F894FFCFA5
S1130A56486F74476C6F7665000A004C4344206601
S1130A666F7220646562756767696E6700554152E7
S1130A7654204672616D65204572726F720055414D
S1130A865254204F76657272756E204572726F727B
S1130A9600427566666572206F766572666C6F775E
S1130AA6206572726F7200414443200030003100A9
S1130AB632003300340035004C6576656C20000046
S9030000FC
